{
  "contractName": "News",
  "abi": [
    {
      "inputs": [
        {
          "internalType": "string",
          "name": "content",
          "type": "string"
        },
        {
          "internalType": "string",
          "name": "date",
          "type": "string"
        }
      ],
      "name": "create",
      "outputs": [],
      "stateMutability": "nonpayable",
      "type": "function"
    },
    {
      "inputs": [
        {
          "internalType": "uint256",
          "name": "id",
          "type": "uint256"
        }
      ],
      "name": "like",
      "outputs": [],
      "stateMutability": "nonpayable",
      "type": "function"
    },
    {
      "inputs": [],
      "name": "news",
      "outputs": [
        {
          "components": [
            {
              "internalType": "uint256",
              "name": "id",
              "type": "uint256"
            },
            {
              "internalType": "address",
              "name": "owner",
              "type": "address"
            },
            {
              "internalType": "string",
              "name": "date",
              "type": "string"
            },
            {
              "internalType": "string",
              "name": "content",
              "type": "string"
            },
            {
              "internalType": "uint256",
              "name": "likes",
              "type": "uint256"
            }
          ],
          "internalType": "struct News.Info[]",
          "name": "",
          "type": "tuple[]"
        }
      ],
      "stateMutability": "view",
      "type": "function",
      "constant": true
    }
  ],
  "bytecode": "0x608060405234801561001057600080fd5b50610899806100206000396000f3fe608060405234801561001057600080fd5b50600436106100415760003560e01c8063198e2b8a146100465780635144417c14610062578063e82935da14610080575b600080fd5b610060600480360361005b91908101906104fb565b61009c565b005b61006a6101aa565b60405161007791906106ed565b60405180910390f35b61009a60048036036100959190810190610567565b6103b7565b005b60008080549050905060006040518060a001604052808381526020013373ffffffffffffffffffffffffffffffffffffffff168152602001848152602001858152602001600081525090806001815401808255809150506001900390600052602060002090600502016000909190919091506000820151816000015560208201518160010160006101000a81548173ffffffffffffffffffffffffffffffffffffffff021916908373ffffffffffffffffffffffffffffffffffffffff160217905550604082015181600201908051906020019061017b9291906103ed565b5060608201518160030190805190602001906101989291906103ed565b50608082015181600401555050505050565b60606000805480602002602001604051908101604052809291908181526020016000905b828210156103ae57838290600052602060002090600502016040518060a0016040529081600082015481526020016001820160009054906101000a900473ffffffffffffffffffffffffffffffffffffffff1673ffffffffffffffffffffffffffffffffffffffff1673ffffffffffffffffffffffffffffffffffffffff168152602001600282018054600181600116156101000203166002900480601f0160208091040260200160405190810160405280929190818152602001828054600181600116156101000203166002900480156102ea5780601f106102bf576101008083540402835291602001916102ea565b820191906000526020600020905b8154815290600101906020018083116102cd57829003601f168201915b50505050508152602001600382018054600181600116156101000203166002900480601f01602080910402602001604051908101604052809291908181526020018280546001816001161561010002031660029004801561038c5780601f106103615761010080835404028352916020019161038c565b820191906000526020600020905b81548152906001019060200180831161036f57829003601f168201915b50505050508152602001600482015481525050815260200190600101906101ce565b50505050905090565b60008082815481106103c557fe5b9060005260206000209060050201905080600401600081548092919060010191905055505050565b828054600181600116156101000203166002900490600052602060002090601f016020900481019282601f1061042e57805160ff191683800117855561045c565b8280016001018555821561045c579182015b8281111561045b578251825591602001919060010190610440565b5b509050610469919061046d565b5090565b61048f91905b8082111561048b576000816000905550600101610473565b5090565b90565b600082601f8301126104a357600080fd5b81356104b66104b18261073c565b61070f565b915080825260208301602083018583830111156104d257600080fd5b6104dd8382846107f9565b50505092915050565b6000813590506104f58161084c565b92915050565b6000806040838503121561050e57600080fd5b600083013567ffffffffffffffff81111561052857600080fd5b61053485828601610492565b925050602083013567ffffffffffffffff81111561055157600080fd5b61055d85828601610492565b9150509250929050565b60006020828403121561057957600080fd5b6000610587848285016104e6565b91505092915050565b600061059c8383610661565b905092915050565b6105ad816107bd565b82525050565b60006105be82610778565b6105c8818561079b565b9350836020820285016105da85610768565b8060005b8581101561061657848403895281516105f78582610590565b94506106028361078e565b925060208a019950506001810190506105de565b50829750879550505050505092915050565b600061063382610783565b61063d81856107ac565b935061064d818560208601610808565b6106568161083b565b840191505092915050565b600060a08301600083015161067960008601826106de565b50602083015161068c60208601826105a4565b50604083015184820360408601526106a48282610628565b915050606083015184820360608601526106be8282610628565b91505060808301516106d360808601826106de565b508091505092915050565b6106e7816107ef565b82525050565b6000602082019050818103600083015261070781846105b3565b905092915050565b6000604051905081810181811067ffffffffffffffff8211171561073257600080fd5b8060405250919050565b600067ffffffffffffffff82111561075357600080fd5b601f19601f8301169050602081019050919050565b6000819050602082019050919050565b600081519050919050565b600081519050919050565b6000602082019050919050565b600082825260208201905092915050565b600082825260208201905092915050565b60006107c8826107cf565b9050919050565b600073ffffffffffffffffffffffffffffffffffffffff82169050919050565b6000819050919050565b82818337600083830152505050565b60005b8381101561082657808201518184015260208101905061080b565b83811115610835576000848401525b50505050565b6000601f19601f8301169050919050565b610855816107ef565b811461086057600080fd5b5056fea2646970667358221220da4dc452608f3463e663c84c0872cc79f1a64f378580ede964305ceee4cad2b564736f6c63430006000033",
  "source": "pragma solidity ^0.6.0;\r\npragma experimental ABIEncoderV2;\r\n\r\ncontract News {\r\n  struct Info {\r\n    uint id;\r\n    address owner;\r\n    string date;\r\n    string content;\r\n    uint likes;\r\n  }\r\n  \r\n  Info[] _infos;\r\n  \r\n  function create(string memory content, string memory date) public {\r\n    uint id = _infos.length;\r\n    _infos.push(Info(id, msg.sender, date, content, 0));\r\n  }\r\n\r\n  function like(uint id) public {\r\n    Info storage info = _infos[id];\r\n    info.likes++;\r\n  }\r\n\r\n  function news() public view returns(Info[] memory) {\r\n    return _infos;\r\n  }\r\n}",
  "sourcePath": "C:\\Users\\hatrari\\Desktop\\apps\\news-hooks\\contracts\\News.sol",
  "compiler": {
    "name": "solc",
    "version": "0.6.0+commit.26b70077.Emscripten.clang"
  },
  "schemaVersion": "3.1.0",
  "updatedAt": "2020-05-09T06:57:41.710Z",
  "networkType": "ethereum",
  "devdoc": {
    "methods": {}
  },
  "userdoc": {
    "methods": {}
  }
}